:060000000A128A11122809
:10000800FE00030EF0000408F1000A08F200831253
:1000180003137F08F3000A128A1152280A128A1160
:100028001528F80183133030FD000030FE009330AE
:10003800FF00203084000A128A11862083010A12E8
:100048008A1126288316031385010130860087014B
:100058000F30880001178B100B1601158110011045
:10006800811181120B118B168B17831203138701D1
:10007800F8184E288312031305107A30F400003064
:10008800F5000A128A116E200A128A110230F80647
:10009800F81C3E2883120313051441288B138B1C6C
:1000A8005E288B1008080F39203E8400831300084F
:1000B800870062280B1D62280B1178148B177308B0
:1000C800FF0072088A0071088400700E8300FE0E1B
:1000D8007E0E0900F601F70175087702031D7628E0
:1000E8007408760203180800781C78287810013004
:1000F800F6070318F70A0030F70770287E088A0009
:100108007F08820082200A128A118000840A04086B
:100118007D0603190034FF0A0319FE0A86283134C4
:10012800323433340F343434353436340F343734CE
:0E013800383439340F340F3430340F340F3470
:02400E0071FF40
:00000001FF
