:060000000A128A11FC2F18
:100F32000A128A11A72783160313111408000A1232
:100F42008A11A727831603131115080083160313AA
:100F520011081F3903191419A72F0800F0000A12EB
:100F62008A11A727700883120313930008008316BF
:100F7200031387150716831203139416941514117D
:100F82009410141083160313911111119110111062
:100F92009413093093000800FF308316031388006E
:100FA2000A128A11B8270A128A110A128A1199277B
:100FB2000A128A1110300A128A11AF270A128A11F4
:100FC2008312031308080A128A11AF270A128A1120
:100FD2000A128A11A0270A128A110230F300043081
:100FE200F200BA30F100F10BF42FF20BF42FF30BF5
:0E0FF200F42F0000D62F83010A128A11CD2F92
:02400E0071FF40
:00000001FF
