:060000000A128A11F02F24
:100E64007E088A007F08820032270A128A118000D5
:100E7400840A04087D0603190034FF0A0319FE0AD4
:100E8400362FAA3400345534013400340234AB34E0
:100E9400023456340334013404340034013403344A
:100EA40007340F341F34F801F9010F30F00000301B
:100EB400F1000A128A1174270A128A118312031389
:100EC4001F151F19632F1E08F901F9078316031351
:100ED4001E08F801F8077908F701F7077808F60102
:100EE400F6070800F201F30171087302031D7C2F59
:100EF4007008720203180800F401F5017508803ABD
:100F0400FF0080307F02031D892F7D307402031897
:100F14009C2F0130F4070318F50A0030F507750813
:100F2400803AFF0080307F02031D9A2F7D307402C7
:100F3400031C8B2F0130F2070318F30A0030F30768
:100F4400762F83120313B201B301B4018316031382
:100F54008601013085009F151F159F141F108312F1
:100F640003139F121F129F11831603131F1383125F
:100F740003139F131F17831603139F17831203135F
:100F84001F1486010A128A1155270A128A1177083A
:100F940083120313B301B3077608B201B207B40195
:100FA400D72F0130FA007A08B4073408FA007A0718
:100FB400203E840083130008FB00840A0008FC0020
:100FC4007C083302031DE82F7B0832020318D32F59
:100FD40034082C3E840000088600C42F831332306A
:100FE400FD000730FE004330FF00203084000A1269
:0C0FF4008A11362783010A128A11A32FEC
:02400E0071FF40
:00000001FF
