:060000000A128A11122809
:10000800FE00030EF8000408F9000A08FA0083123B
:1000180003137F08FB000A128A11072A0A128A11A1
:100028001528FC01C601C701C801C90183010A12CC
:100038008A111E28831603138601043087000630B0
:100048009F00890183120313901610169711171534
:10005800971017148E018F010C100C1183160313BF
:100068000C150A128A11F7220A128A1180300A1214
:100078008A111F230A128A1183120313BE01BF01BA
:100088003F08803AFF0080307F02031D4D2805306D
:100098003E020318682820300A128A1131230A12F6
:1000A8008A11013083120313BE070318BF0A0030F8
:1000B800BF073F08803AFF0080307F02031D662893
:1000C80005303E02031C4F286D300A128A11312375
:1000D8000A128A1173300A128A1131230A128A11FC
:1000E80080300A128A111F230A128A110B178B17E4
:1000F800831603130C1483120313101483160313AB
:100108000C11831203134908B9004808B8004708BE
:10011800B7004608B600831603130C150030831287
:100128000313A3000030A2000330A100E830A000B0
:10013800F430AE000130AF000030B0000030B10044
:100148003608B2003708B3003808B4003908B500DB
:1001580003300310B20DB30DB40DB50DFF3E031DF2
:10016800AD283208AE0733080318330FBC28BD2862
:10017800AF0734080318340FC228C328B00735085E
:100188000318350AB1073108A7003008A6002F0860
:10019800A5002E08A4000A128A11A7210A128A11A2
:1001A800831203132108C501C5072008C401C40729
:1001B8000A30A0000030A1004508A301A3074408A5
:1001C800A201A2070A128A118C220A128A1183122A
:1001D80003132108BB01BB072008BA01BA070A307C
:1001E800A6000030A7004508A301A3074408A20100
:1001F800A2076430A0000030A1000A128A118C22E4
:100208000A128A11831203132108A901A9072008D9
:10021800A801A8070A128A114C220A128A1183120D
:1002280003132708BD01BD072608BC01BC076430BD
:10023800A6000030A7004508A301A3074408A201AF
:10024800A207E830A0000330A1000A128A118C220C
:100258000A128A11831203132108A901A907200889
:10026800A801A8070A128A114C220A128A118312BD
:1002780003132708C101C1072608C001C007E830D9
:10028800A6000330A7004508A901A9074408A8014A
:10029800A8070A128A114C220A128A118312031320
:1002A8002708C301C3072608C201C207430842043E
:1002B800031D602920306429831203134208303E4D
:1002C8000A128A1131230A128A118312031343086E
:1002D8004204031D752941084004031D7529203077
:1002E8007929831203134008303E0A128A113123F8
:1002F8000A128A118312031343084204031D8E292C
:1003080041084004031D8E293D083C04031D8E2925
:1003180020309229831203133C08303E0A128A11B6
:1003280031230A128A11831203133A08303E0A1243
:100338008A1131230A128A1180300A128A111F2366
:100348000A128A118228003083120313AC0000308D
:10035800AB000030AA000030A900230822042104C1
:1003680020040319FE29AD01AD0AA31BC9290130D8
:10037800A8000310A00DA10DA20DA30DA80BBD2967
:100388000130A8002808AD07B9290130A8000310DA
:10039800A90DAA0DAB0DAC0DA80BCB29230827027C
:1003A800031DE02922082602031DE0292108250251
:1003B800031DE02920082402031CF1292008A402B7
:1003C8002108031C210FA5022208031C220FA602E4
:1003D8002308031C230FA702291401300310A30CC0
:1003E800A20CA10CA00CFF3E031DF2290130AD02A6
:1003F800031DC9292C08A3002B08A2002A08A10064
:100408002908A0000800831603130C1C142A831261
:1004180003130C1C142A0C100130F0007008FC07A0
:10042800831603130C1D402A831203130C1D402A44
:100438000C111508F0001608F100F201F3017C0810
:10044800F400F501F601F70110300310F40DF50D75
:10045800F60DF70DFF3E031D292A70087404C60027
:1004680071087504C70072087604C8007308770419
:10047800C900FC018E018F017B088312FF007A08F6
:100488008A0079088400780E8300FE0E7E0E09002B
:1004980083120313AB01AC01270826040319852A2C
:1004A800AD01AD0AA71B642A01300310A60DA70DE4
:1004B800FF3E031D592A0130AA002A08AD07562A13
:1004C80001300310AB0DAC0DFF3E031D652A270854
:1004D8002902031D712A26082802031C7A2A2608E5
:1004E800A8022708031CA903A9022B140130031032
:1004F800A70CA60CFF3E031D7B2A0130AD02031D8D
:10050800642A2C08A701A7072B08A601A60708003C
:1005180083120313210820040319BB2AA501A50A85
:10052800A11BA22A01300310A00DA10DFF3E031D3F
:10053800972A0130A4002408A507942A2108230239
:10054800031DA82A20082202031CB02A2008A202A0
:100558002108031CA303A30201300310A10CA00C63
:10056800FF3E031DB12A0130A502031DA22A23085C
:10057800A101A1072208A001A00708008312031304
:10058800A201A30121082302031DCC2A200822026C
:1005980003180800A401A5012508803AFF0080304F
:1005A8007F02031DD92A7D3024020318EE2A013068
:1005B80083120313A4070318A50A0030A50725080A
:1005C800803AFF0080307F02031DEC2A7D30240230
:1005D800031CDB2A013083120313A2070318A30AA2
:1005E8000030A307C62A0F3083120313A00000307F
:1005F800A1000A128A11C2220A128A1138300A127C
:100608008A111F230A128A1108300A128A111F231D
:100618000A128A1101300A128A111F230A128A113A
:1006280006300A128A111F230A128A110E300A1282
:100638008A111F23080083120313A60026088600C8
:10064800091089140F30A0000030A1000A128A1185
:10065800C222831203138910080083120313A60011
:1006680026088600091489140F30A0000030A10064
:0E0678000A128A11C22283120313891008008D
:02400E0071FF40
:00000001FF
