:060000000A128A11122809
:10000800FE00030EF0000408F1000A08F200831253
:1000180003137F08F3000A128A1125280A128A118D
:10002800152883133030FD000030FE004D30FF00EE
:10003800203084000A128A11402083010A128A1192
:100048005D288B138B1C30288B1008080F39203E35
:1000580084008313000887008B177308FF00720859
:100068008A0071088400700E8300FE0E7E0E09005F
:100078007E088A007F0882003C200A128A118000CC
:10008800840A04087D0603190034FF0A0319FE0ACE
:1000980040283134323433340F3434343534363440
:1000A8000F343734383439340F340F3430340F3494
:1000B8000F34013083160313860087010F30880040
:1000C80001178B100B168B178312031387016B28EC
:02400E0071FF40
:00000001FF
