:060000000A128A11122809
:10000800FE00030EF1000408F2000A08F300831250
:1000180003137F08F4000A128A1119280A128A1198
:10002800152883010A128A113C28831603130C1C15
:100038003028831203130C1C30280C100B308F004F
:10004800DB308E0005080139F0000130F0060508A4
:100058007006FE397006850074088312FF00730865
:100068008A0072088400710E8300FE0E7E0E09005D
:1000780083160313850106309F008312031390161D
:100088001016901190100B308F00DB308E000C1082
:10009800831603130C148312031305100B178B1705
:0400A80010145528B3
:02400E0071FF40
:00000001FF
