:060000000A128A11F02F24
:100DC200313432343334583434343534363458349C
:100DD20037343834393458342A343034233458349C
:100DE2007E088A007F088200F1260A128A1180009A
:100DF200840A04087D0603190034FF0A0319FE0A57
:100E0200F52EF60076088312031386000714871462
:100E12000F30F0000030F1000A128A114C278312C1
:100E2200031387100800F600760883120313860066
:100E3200071087140F30F0000030F1000A128A11F7
:100E42004C2783120313871008000F30F000003084
:100E5200F1000A128A114C270A128A1138300A123A
:100E62008A1114270A128A1108300A128A111427C9
:100E72000A128A1101300A128A1114270A128A11DF
:100E820006300A128A1114270A128A110E300A1227
:100E92008A1114270800F201F30171087302031D7D
:100EA200542F7008720203180800F401F501750846
:100EB200803AFF0080307F02031D612F7D30740273
:100EC2000318742F0130F4070318F50A0030F507F0
:100ED2007508803AFF0080307F02031D722F7D303B
:100EE2007402031C632F0130F2070318F30A003067
:100EF200F3074E2F8316031386018701FF30880004
:100F0200F801F9010A128A1126270A128A11803081
:100F12000A128A1114270A128A1183120313081E55
:100F22008E2F08080F39F7007708FA007A08203E5A
:100F32008400831300080A128A1102270A128A11F6
:100F4200D22FC0300A128A1114270A128A11EB2FEB
:100F520094300A128A1114270A128A11EB2FD43004
:100F62000A128A1114270A128A11EB2F01300A126F
:100F72008A1114270A128A1180300A128A11142740
:100F82000A128A117A08203E8400831300080A128A
:100F92008A1102270A128A110130F8000030F90082
:100FA200EB2F0130F8070318F90A0030F907790826
:100FB200003A0319DD2FEB2F7808143A0319A22FF8
:100FC2003C3A0319A92F143A0319B02F6C3A0319AA
:100FD200B72FEB2F83120313081E8E2FEB2F8313D1
:100FE2003030FD000630FE00E130FF00203084008A
:0E0FF2000A128A11F52683010A128A117B2F3A
:02400E0071FF40
:00000001FF
