:060000000A128A11122809
:10000800FE00030EF2000408F3000A08F40083124D
:1000180003137F08F5000A128A118C280A128A1124
:100028001528F601F701BC01BD0183133030FD002E
:100038000030FE00ED30FF00203084000A128A11E3
:10004800E02083010A128A1129280130831603133C
:10005800860087010F30880001178B100B160115D9
:1000680081100114811181120B118B168312031355
:100078003C0887008B170130B6000030B7000A1221
:100088008A115D200A128A110030831203133D027F
:10009800093003193C02031C5428BC01BD015A282D
:1000A8000130BC070318BD0A0030BD073C088700B3
:1000B8003F28831203133708B101B1073608B0018E
:1000C800B0073130B2000030B3000A128A11B720ED
:1000D8000A128A11831203133108B901B9073008CB
:1000E800B801B807BA01BB0139083B02031D7E28D5
:1000F80038083A0203180800761C80287610013068
:1001080083120313BA070318BB0A0030BB07782809
:100118008B138B1CA7288B1008080F39203E8400EE
:1001280083130008F0007008F70077080F3A0319E6
:10013800A4287708F000F1017008BC007108BD0020
:100148003C088700AB280B1DAB280B1176148B17C6
:100158007508FF0074088A0073088400720E830013
:10016800FE0E7E0E090083120313B401B501301C84
:10017800C3283208B4070318B50A3308B507013095
:100188000310B20DB30DFF3E031DC4280130031048
:10019800B10CB00CFF3E031DCB2831083004031D01
:1001A800BB283508B101B1073408B001B007080011
:1001B8007E088A007F088200DC200A128A118000EB
:1001C800840A04087D0603190034FF0A0319FE0A8D
:1001D800E0280134023403340F340434053406347F
:1001E8000F340734083409340F340F3400340F3413
:0201F8000F34C2
:02400E0071FF40
:00000001FF
