:060000000A128A11FC2F18
:100E9E00F6007608831203138600071487140F30AA
:100EAE00F0000030F1000A128A1199278312031301
:100EBE0087100800F60076088312031386000710C9
:100ECE0087140F30F0000030F1000A128A119927B2
:100EDE0083120313871008000F30F0000030F1006A
:100EEE000A128A1199270A128A1138300A128A11A7
:100EFE0061270A128A1108300A128A1161270A1212
:100F0E008A1101300A128A1161270A128A110630DB
:100F1E000A128A1161270A128A110E300A128A11D8
:100F2E0061270800F201F30171087302031DA12F5E
:100F3E007008720203180800F401F5017508803A72
:100F4E00FF0080307F02031DAE2F7D307402031828
:100F5E00C12F0130F4070318F50A0030F5077508A4
:100F6E00803AFF0080307F02031DBF2F7D30740258
:100F7E00031CB02F0130F2070318F30A0030F307F9
:100F8E009B2F83160313860187010A128A1173277A
:100F9E000A128A11C6300A128A1161270A128A11A0
:100FAE0048300A128A114F270A128A1145300A1246
:100FBE008A114F270A128A114C300A128A114F27B2
:100FCE000A128A114C300A128A114F270A128A11FC
:100FDE004F300A128A114F270A128A1121300A1233
:100FEE008A114F270A128A11FB2F83010A128A11C6
:020FFE00C82FFA
:02400E0071FF40
:00000001FF
