:060000000A128A11FC2F18
:100E80000A128A11552783160313911408000A12B7
:100E90008A11552783160313111408000A128A11A8
:100EA0005527831603131115080083160313110821
:100EB0001F3903191419552F0800F0000A128A115E
:100EC0005527700883120313930008008316031339
:100ED0008715071683120313941694151411941092
:100EE0001410831603139111111191101110941302
:100EF000093093000800F1000A128A1155270A12DE
:100F00008A118316031391150A128A1155270A12A2
:100F10008A11831203131308F0007008F2000A12FA
:100F20008A1155270A128A11F108031D9B2F831677
:100F3000031391169E2F8316031391121116720834
:100F40000800831603138601831203138601FF3002
:100F50008316031388000A128A1166270A128A115F
:100F60000A128A1147270A128A1110300A128A11AE
:100F70005D270A128A118312031308080A128A11C4
:100F80005D270A128A110A128A114E270A128A1143
:100F90000230F5000430F400BA30F300F30BCE2F2A
:100FA000F40BCE2FF50BCE2F00000A128A1140272A
:100FB0000A128A1111300A128A115D270A128A1147
:100FC00000300A128A117B270A128A118312031336
:100FD00086000A128A114E270A128A110230F50081
:100FE0000430F400BA30F300F30BF42FF40BF42FB9
:100FF000F50BF42F0000B02F83010A128A11A12FE4
:02400E0071FF40
:00000001FF
