:060000000A128A11122809
:10000800FE00030EF1000408F2000A08F300831250
:1000180003137F08F4000A128A1119280A128A1198
:10002800152883010A128A117A28831603138C1D56
:100038005328831203138C1D53288C111412941BFC
:100048002728141F2E281308F0007008F5009413B1
:100058001413141683160313941E141943288312B9
:1000680003131308F0007008F50083160313141C1B
:100078003928831203131308860014165328941E74
:10008800141D5328831203131308F0007008F50099
:100098000808930014168316031314184F287408BD
:1000A8008312FF0073088A0072088400710E8300AF
:1000B800FE0E7E0E0900F600831603138715071639
:1000C800831203139416941114159414141014160F
:1000D80083160313911111119110111094177608BA
:1000E80093008C15831203138C11080083160313D5
:1000F8008601831203138601FF30831603138800D9
:1001080010300A128A115F200A128A110B178B17F6
:020118008C2831
:02400E0071FF40
:00000001FF
