:060000000A128A11EF2F25
:100D9200F300F201731CD12E7008F1007108F20702
:100DA2000310F00D0310F30CF308031DCB2E720891
:100DB20008007E088A007F088200DA260A128A1159
:100DC2008000840A04087D0603190034FF0A03190F
:100DD200FE0ADE2E323400347D340034FA3400341C
:100DE20077340134DB340134213400345334003499
:100DF200A6340034F93400343B340134193400345D
:100E02003F3400347E340034BD340034EF340034D7
:100E12007C3452343E34F201F30171087302031D33
:100E2200142F7008720203180800F401F501750806
:100E3200803AFF0080307F02031D212F7D30740233
:100E42000318342F0130F4070318F50A0030F507B0
:100E52007508803AFF0080307F02031D322F7D30FB
:100E62007402031C232F0130F2070318F30A003027
:100E7200F3070E2F83120313C801C701831603134E
:100E8200870106309F0003308900831203139214F6
:100E92001210971517159710171012157B10831241
:100EA200031309187B147B187A196B2F02308312F3
:100EB20003134802031C602FC101C201672F4808B7
:100EC200013EC100003003180130C2004108F600A3
:100ED2007608C8007A117B187A157A1083120313E8
:100EE20089187A147A18FA188A2F04308312031395
:100EF2004702031C7F2FC301C401862F4708013E0E
:100F0200C300003003180130C4004308F60076081D
:100F1200C700FA107A18FA148312031348083E3EE7
:100F220084008313000883160313920083120313B1
:100F32004708F60001300310F60DFF3E031D9C2FFB
:100F42000A30F7007708F00048080A128A11C92609
:100F52000A128A11203E7607F8007808840083136B
:100F6200000883120313C500840A0008C60046085D
:100F7200F7004508F6000310F70CF60C0310F70C07
:100F8200F60CFF307605F80000307705F900780896
:100F92009500790896004608F7004508F600031008
:100FA200F70CF60C761CD92F831203139716DC2F3D
:100FB200831203139712451CE22F83120313171691
:100FC200E52F8312031317126430F0000030F10092
:100FD2000A128A110C270A128A114F2FFA0183135F
:100FE2004130FD000630FE00EB30FF00203084006F
:0E0FF2000A128A11DE2683010A128A113B2F91
:02400E0071FF40
:00000001FF
