:060000000A128A11122809
:10000800FE00030EF1000408F2000A08F300831250
:1000180003137F08F4000A128A1119280A128A1198
:10002800152883010A128A113828831603138C1C99
:100038002C28831203138C1C2C288C1005080139DA
:10004800F0000130F00605087006FE3970068500DC
:1000580074088312FF0073088A0072088400710E06
:100068008300FE0E7E0E09008316031385010630F9
:100078009F0083120313921012147D30831603130A
:100088009200831203138C10831603138C148312AB
:0C009800031305100B178B1712155128CD
:02400E0071FF40
:00000001FF
