:060000000A128A11F02F24
:100F6A000134023403340F340434053406340F34A4
:100F7A000734083409340F340F3400340F340F3473
:100F8A007E088A007F088200C5270A128A1180001B
:100F9A00840A04087D0603190034FF0A0319FE0AAD
:100FAA00C92F0630831603139F008501FF3088007E
:100FBA00831203138501081EE02F08080F39F00079
:100FCA007008F1007108203E840083130008850030
:100FDA00081EE02FED2F83133030FD000730FE008E
:100FEA00B530FF00203084000A128A11C927830114
:060FFA000A128A11D62F35
:02400E0071FF40
:00000001FF
