:060000000A128A11122809
:10000800FE00030EF2000408F3000A08F40083124D
:1000180003137F08F5000A128A112C280A128A1184
:100028001528F60183133030FD000030FE007D30C6
:10003800FF00203084000A128A1170200A128A11E7
:100048000A128A118D20F70083010A128A114F289B
:100058000B1A8B1C44288B10761844280608F000CD
:1000680004300310F00CFF3E031D352870080F39CB
:10007800203E840083130008F1007108F70076140D
:100088007508FF0074088A0073088400720E8300E4
:10009800FE0E7E0E0900F130831603138600011749
:1000A8008B100B1683120313981783160313181259
:1000B80018151930990018138B179816761C622892
:1000C800831203130C1E642877089900761062289F
:1000D8007E088A007F0882006C200A128A1180003C
:1000E800840A04087D0603190034FF0A0319FE0A6E
:1000F80070280134023403340E34043405340634D1
:100108000E340734083409340E340F3400340F34F5
:040118000E3430343D
:02400E0071FF40
:00000001FF
