:060000000A128A11F02F24
:100C2000313432343334583434343534363458343F
:100C300037343834393458342A343034233458343F
:100C40007E088A007F08820020260A128A1180000E
:100C5000840A04087D0603190034FF0A0319FE0AFA
:100C6000242EF600760883120313860007148714D7
:100C70000F30F0000030F1000A128A117B26831237
:100C8000031387100800F60076088312031386000A
:100C9000071087140F30F0000030F1000A128A119B
:100CA0007B2683120313871008000F30F0000030FA
:100CB000F1000A128A117B260A128A1138300A12B0
:100CC0008A1143260A128A1108300A128A11432611
:100CD0000A128A1101300A128A1143260A128A1155
:100CE00006300A128A1143260A128A110E300A129D
:100CF0008A1143260800F201F30171087302031DF3
:100D0000832E7008720203180800F401F5017508BB
:100D1000803AFF0080307F02031D902E7D307402E8
:100D20000318A32E0130F4070318F50A0030F50765
:100D30007508803AFF0080307F02031DA12E7D30B0
:100D40007402031C922E0130F2070318F30A0030DC
:100D5000F3077D2E83160313860187010F30880069
:100D60006330FA007A0883120313B300B001B101B3
:100D70000A128A1155260A128A1180300A128A1123
:100D800043260A128A11831203133308633A031DA0
:100D9000D52E0A128A1145270A128A117608FA00FE
:100DA0007A0883120313B300C32E3308203E840055
:100DB000831300080A128A1131260A128A11142F8D
:100DC000C0300A128A1143260A128A112F2F94303A
:100DD0000A128A1143260A128A112F2FD4300A12BE
:100DE0008A1143260A128A112F2F01300A128A1102
:100DF00043260A128A1180300A128A1143260A12E7
:100E00008A11831203133308203E840083130008E1
:100E10000A128A1131260A128A1101308312031331
:100E2000B0000030B1002F2F013083120313B00740
:100E30000318B10A0030B1073108003A0319212F15
:100E40002F2F3008143A0319E02E3C3A0319E72EED
:100E5000143A0319EE2E6C3A0319F52E2F2F831234
:100E600003133308FA007A08B20032083306031D70
:100E7000C32E0A128A1145270A128A117608FA002F
:100E80007A0883120313B300352F831203138801EA
:100E900010308312031388000530F0000030F10099
:100EA0000A128A117B260A128A1183120313080878
:100EB0000F39F8007808F9006F2FF601F7010800E4
:100EC0000430F6000030F70008000830F60000306B
:100ED000F70008000C30F6000030F7000800790831
:100EE000013A03195D2F033A0319602F063A0319DB
:100EF000652F0C3A03196A2F7D2F203083120313BC
:100F000088000530F0000030F1000A128A117B26BB
:100F10000A128A118312031308080F39F80078089F
:100F2000F900A62F0130F6000030F7000800053068
:100F3000F6000030F70008000930F6000030F70036
:100F400008000D30F6000030F70008007908013A7B
:100F50000319922F033A0319972F063A03199C2F6E
:100F60000C3A0319A12FB42F4030831203138800C9
:100F70000530F0000030F1000A128A117B260A12B7
:100F80008A118312031308080F39F8007808F90052
:100F9000DD2F0230F6000030F70008000630F600C2
:100FA0000030F70008000A30F6000030F7000800B3
:100FB0000E30F6000030F70008007908013A0319F6
:100FC000C92F033A0319CE2F063A0319D32F0C3A2F
:100FD0000319D82FEB2F6330F6000030F70008001C
:100FE00083133030FD000630FE001030FF0020304B
:100FF00084000A128A11242683010A128A11AA2E59
:02400E0071FF40
:00000001FF
