:060000000A128A11FC2F18
:100C1400F401F5011430F3007930F200F20B102ED8
:100C2400F30B102E152E831203131F151F19182EE4
:100C34001E08F501F507831603131E08F401F407D3
:100C44007508F101F1077408F001F007080000309D
:100C540083120313A4000030A3000030A20000306C
:100C6400A100761C492E7A08A1077B0803110318FA
:100C7400013E031DA2077C0803110318013E031D56
:100C8400A3077D0803110318013E031DA4070130C7
:100C9400A0000310FA0DFB0DFC0DFD0DA00B4B2E57
:100CA40001300310F90CF80CF70CF60CFF3E031D91
:100CB400532E7908780477047604031D332E240810
:100CC400F9002308F8002208F7002108F6000800BC
:100CD4008312031388011030831203138800073032
:100CE400F3007D30F200F20B752EF30B752E831298
:100CF400031308080F39F2007208F400952E3130FE
:100D0400F0000030F10008003430F0000030F10051
:100D140008003730F0000030F10008002A30F000FD
:100D24000030F10008007408013A0319812E033AD7
:100D34000319862E063A03198B2E0C3A0319902EAA
:100D4400A32E20308312031388000730F3007D3074
:100D5400F200F20BAB2EF30BAB2E83120313080835
:100D64000F39F2007208F400CB2E3230F00000305C
:100D7400F10008003530F0000030F1000800383090
:100D8400F0000030F10008003030F0000030F100D5
:100D940008007408013A0319B72E033A0319BC2E4C
:100DA400063A0319C12E0C3A0319C62ED92E403027
:100DB4008312031388000730F3007D30F200F20B36
:100DC400E12EF30BE12E8312031308080F39F2000E
:100DD4007208F400012F3330F0000030F1000800F5
:100DE4003630F0000030F10008003930F0000030F7
:100DF400F10008002330F0000030F100080074080E
:100E0400013A0319ED2E033A0319F22E063A031997
:100E1400F72E0C3A0319FC2E0F2F6330F00000302C
:100E2400F1000800633083120313A5002508B50000
:100E34000030B1000030B0000030AF000030AE0030
:100E44001930A5002508B300B401B40A0130831693
:100E5400031385000F3088009F151F159F141F1062
:100E6400831203139F121F129F11831603131F1360
:100E7400831203139F131F17831603139F178312E1
:100E840003131F1498178316031318121815193017
:100E9400990018138B17981683123508633A031DAB
:100EA400E02F0A128A116A260A128A117008831224
:100EB4000313A5002508B5004E2F0A128A110A262D
:100EC4000A128A11700883120313A5007108A60080
:100ED400A701A8012808F9002708F8002608F70048
:100EE4002508F6000030FD000030FC000030FB0057
:100EF4006430FA000A128A1129260A128A11790822
:100F040083120313B1007808B0007708AF007608A5
:100F1400AE000130A5000030A6000030A70000306C
:100F2400A8002E08A9002F08AA003008AB00310839
:100F3400AC000A300310AC0CAB0CAA0CA90CFF3E9D
:100F4400031D9C2F2908A5072A0803182A0FAB2F75
:100F5400AC2FA6072B0803182B0FB12FB22FA7070E
:100F64002C0803182C0AA80701300310A80CA70C9E
:100F7400A60CA50CFF3E031DB72F2508AD002D08B8
:100F8400B30083160313981CC32F8312031333086F
:100F9400DE2F34080319D52FB40183160313981CCC
:100FA400CF2F6330DC2FB401B40A83160313981CCB
:100FB400D72F5830831203139900E82F3508233AAA
:100FC4000319CB2F093A03195F2FE82F3508A50021
:100FD4002508B20032083506031D4E2F0A128A1165
:100FE4006A260A128A11700883120313A5002508C1
:0C0FF400B500EC2F83010A128A11142FA3
:02400E0071FF40
:00000001FF
