:060000000A128A11122809
:10000800FE00030EF1000408F2000A08F300831250
:1000180003137F08F4000A128A11922A0A128A111D
:100028001528AE01AF010A128A11DC220A128A11C0
:10003800B0000A128A11DD22B10083010A128A1166
:100048002528831603138601880183120313981742
:100058008316031318121815193099008312031305
:100068001813831603138C160115811401148111BA
:1000780081120B118B160A128A1144220A128A1154
:1000880080300A128A11B4220A128A110F300A1219
:100098008A116C220A128A11C0300A128A11B422FB
:1000A8000A128A1101300A128A116C220A128A1164
:1000B80094300A128A11B4220A128A111D300A12C7
:1000C8008A116C220A128A110B178B1783120313D9
:1000D8001816831203133108633A031D75288B120F
:1000E8007F283108583A031D7B288B167F28310852
:1000F800A5002508B0000A30F5000030F6003008E9
:10010800A500A6012508F7002608F8000A128A119A
:100118006B210A128A11750883120313A700270896
:10012800AB000A30F5000030F6003008A500A60143
:100138002508F7002608F8000A128A11C8210A12B1
:100148008A11750883120313A7002708AC008930A9
:100158000A128A11B4220A128A11831203132B0875
:10016800303E0A128A11C8220A128A112E300A1247
:100178008A11C8220A128A11831203132C08303EEE
:100188000A128A11C8220A128A11831203132B0831
:10019800A5002508AD002C080319D6280130A500B4
:1001A8002508AD07CB300A128A11B4220A128A1127
:1001B800831203132D08303E0A128A11C8220A122C
:1001C8008A11831203132D080319F1282D08A5009D
:1001D800A6012508A8002608F4280130A800003048
:1001E800A9002808A5002508AA002A08A500A60134
:1001F8002508F5002608F6001E30F7000030F80044
:100208000A128A116B210A128A117608803A83121F
:100218000313A70080302702031D14292F08750235
:1002280003182429831203132D08031924290130E4
:10023800A5002508AE073D302E020318AE01AF0118
:100248000A30F5000030F600831203132E08A500CB
:10025800A6012508F7002608F8000A128A116B2162
:100268000A128A11750883120313A7002708AB0026
:100278000A30F5000030F6002E08A500A601250872
:10028800F7002608F8000A128A11C8210A128A11F2
:10029800750883120313A7002708AC009B300A12C5
:1002A8008A11B4220A128A11831203132B08303ED2
:1002B8000A128A11C8220A128A11831203132C08FF
:1002C800303E0A128A11C8220A128A116D28831236
:1002D8000313A201F61F7729F509F609F50A031990
:1002E800F60AA201A20AF81F8229F709F809F70AF3
:1002F8000319F80A0130A0002008A206A301A401EE
:10030800760875040319B929A101A10AF61B9829D1
:1003180001300310F50DF60DFF3E031D8D29013048
:10032800A0002008A1078A2901300310A30DA40DFD
:10033800FF3E031D992976087802031DA529750833
:100348007702031CAE297508F7027608031CF80328
:10035800F802231401300310F60CF50CFF3E031DC0
:10036800AF290130A102031D982922080319C129C8
:10037800A309A409A30A0319A40A2408F601F60785
:100388002308F501F507080083120313A201F81FDB
:10039800D429F709F809F70A0319F80AA201A20AE9
:1003A800F61FDB29F509F609F50A0319F60A760896
:1003B80075040319082AA101A10AF61BEF290130C7
:1003C8000310F50DF60DFF3E031DE4290130A000D2
:1003D8002008A107E12976087802031DF529750888
:1003E8007702031CFD297508F7027608031CF80339
:1003F800F80201300310F60CF50CFF3E031DFE2930
:100408000130A102031DEF2922080319102AF70958
:10041800F809F70A0319F80A7808F601F6077708C1
:10042800F501F507080002308A000408840A8207EB
:1004380000344634723465347134753465346E343E
:10044800633479343A3420347834203400345634E0
:100458006F346C3474346134673465343A3420341E
:1004680078342E3478342034003443346F3475347F
:100478006E3474343A342034783478342034003488
:10048800143083120313A1007930A000A00B4A2A6C
:10049800A10B4A2A4F2A38300A128A11B4220A12AA
:1004A8008A1108300A128A11B4220A128A110130FC
:1004B8000A128A11B4220A128A1106300A128A1103
:1004C800B4220A128A110E300A128A11B4220800C4
:1004D80083120313A200A001A101200822078400AF
:1004E8000A128A1117220A128A1100380319080001
:1004F8002008220784000A128A1117220A128A1178
:100508000A128A11C8220A128A11013083120313AF
:10051800A0070318A10A0030A107712A8316031344
:100528008C1E9F2A831203138C1E9F2A1A08F00020
:100538007008B100A82A8B1A0B1DA82A0B110130CC
:10054800F00070088312AF0774088312FF00730865
:100558008A0072088400710E8300FE0E7E0E090068
:10056800F7007708831203138600081088141430E4
:10057800F6007930F500F50BBF2AF60BBF2AC42A1E
:100588008312031388100800F700770883120313F7
:100598008600081488141430F6007930F500F50B3D
:1005A800D32AF60BD32AD82A8312031388100800FB
:0405B80019341934A5
:02400E0071FF40
:00000001FF
