:060000000A128A11122809
:10000800FE00030EF2000408F3000A08F40083124D
:1000180003137F08F5000A128A1177280A128A1139
:100028001528F80183133030FD000030FE00BE3083
:10003800FF00203084000A128A11B1200A128A11A6
:100048000A128A11CE200A128A11F6000A128A119F
:10005800CF20F70083010A128A113228F130831663
:100068000313860001178B100B16831203139817BE
:1000780083160313181218151930990018138B17C3
:100088009816781C452883120313B10131087707A5
:1000980084000A128A119A200A128A110038031958
:1000A80065280C1E55283108770784000A128A1122
:1000B8009A200A128A1199000130B0003008B1075D
:1000C8004A280C1E6528760899000C1E69282E30CF
:1000D80099000C1E6D280D3099000C1E71280A30ED
:1000E8009900781045280B1A8B1C8F288B107818CC
:1000F8008F280608F00004300310F00CFF3E031DA3
:10010800802870080F39203E840083130008F1000E
:100118007108F60078147508FF0074088A007308DF
:100128008400720E8300FE0E7E0E090000308A00E5
:100138000408840A8207003459346F347534203433
:1001480070347234653473347334653464342034F1
:1001580000347E088A007F088200AD200A128A11C6
:100168008000840A04087D0603190034FF0A031975
:10017800FE0AB12831343234333458343434353407
:100188003634583437343834393458342A343034DF
:080198002334583430340134E3
:02400E0071FF40
:00000001FF
