:060000000A128A11122809
:10000800FE00030EF1000408F2000A08F300831250
:1000180003137F08F4000A128A111B280A128A1196
:100028001528F501F60183010A128A113C28831666
:1000380003130C1D3028831203130C1D30280C11D8
:100048008E018F0105080139F0000130F00605081E
:100058007006FE397006850074088312FF00730865
:100068008A0072088400710E8300FE0E7E0E09005D
:1000780083160313850106309F008312031390161D
:1000880010128E018F01971517119714171004304D
:100098009600E23095000C11831603130C15831299
:0C00A800031305100B178B1710145928B8
:02400E0071FF40
:00000001FF
